:1000000012C019C018C017C016C015C014C013C044
:1000100047C011C010C00FC00EC00DC00CC00BC037
:100020000AC009C008C011241FBECFE5D4E0DEBF5E
:10003000CDBF0ED05EC0E4CF8EB581608EBD8EB5D3
:100040008D7F8EBD8EB58B7F8EBD1DBC1CBC089573
:100050008FB58F7B8FBD8FB580688FBD8FB5816069
:100060008FBD8FB58D7F8FBD8EB588608EBD8EB5EF
:100070008F7E8EBDE1DF89B7846089BFB99AC19850
:100080001BBC1ABC889A909A7894FFCF8EB58E7F4D
:100090008EBD8EB58D7F8EBD8EB58B7F8EBD089546
:1000A0001F920F920FB60F9211242F933F934F93ED
:1000B0005F936F937F938F939F93AF93BF93EF93D0
:1000C000FF93E4DF92B381E0911180E082BBB4DF63
:1000D000FF91EF91BF91AF919F918F917F916F9120
:1000E0005F914F913F912F910F900FBE0F901F90F6
:0600F0001895F894FFCF03
:00000001FF
