:1000000012C019C018C017C016C015C014C013C044
:1000100012C011C010C00FC00EC00DC00CC00BC06C
:100020000AC009C008C011241FBECFE5D4E0DEBF5E
:10003000CDBF02D023C0E4CF8FB58F7B8FBD8FB5EE
:1000400080688FBD8FB581608FBD8FB582608FBD99
:100050008EB588608EBD8EB58F7E8EBD8EB58E7F3F
:100060008EBD8EB582608EBD8EB58B7F8EBDB99AEA
:10007000C1981BBC1ABC889A909AFFCFF894FFCF06
:00000001FF
