S00E00004369636164612E73726563E1
S113000012C019C018C017C016C015C014C013C040
S113001012C011C010C00FC00EC00DC00CC00BC068
S11300200AC009C008C011241FBECFE5D4E0DEBF5A
S1130030CDBF02D025C0E4CF8FB58F7B8FBD8FB5E8
S113004080688FBD8FB581608FBD8FB582608FBD95
S11300508EB588608EBD8EB58F7E8EBD8EB5816067
S11300608EBD8EB58D7F8EBD8EB58B7F8EBDB99ABC
S1130070C1988AE090E09BBD8ABD889A909AFFCF90
S1070080F894FFCF1E
S9030000FC
