S00E00004369636164612E73726563E1
S113000021C03BC03AC039C038C037C036C035C043
S11300102DC333C032C031C030C02FC02FC02DC05B
S11300202CC02BC02AC005A84CCDB2D44EB938364A
S1130030A9020C50B9918688083CA6AAAA2ABE0037
S11300400000803F11241FBECFE5D4E0DEBFCDBF4A
S113005010E0A0E6B0E0E4EFFAE002C005900D92F3
S1130060A037B107D9F720E0A0E7B0E001C01D92A6
S1130070A339B207E1F77FD03BC5C2CF1F920F92DD
S11300800FB60F9211242F938F939F9384B195B140
S11300908835924020F480917000882389F0909AEA
S11300A08091700081110DC081E0809370001092E6
S11300B09200109291001092900010928F0001C053
S11300C090989F918F912F910F900FBE0F901F903A
S11300D01895889A9098A098379A359A86B1836033
S11300E086B93298339A87B1806C87B93D98369A2D
S11300F008958EB58E7F8EBD8EB582608EBD8EB511
S11301008B7F8EBD8AEF9FEF9DBD8CBD08958FB50B
S11301108F7B8FBD8FB580688FBD8FB58F7E8FBD70
S11301208FB580628FBD8FB581608FBD8FB58D7F98
S11301308FBD8EB588608EBD8EB58F7E8EBD89B71E
S1130140846089BF85B5886485BD85B58F7E85BD8E
S113015085B5806285BD85B58E7F85BD85B5826098
S113016085BD85B58B7F85BD1BBC1ABC19BC18BC6D
S113017013BCBFCF0895CBDFACDF7894FFCF8EB52F
S11301808E7F8EBD8EB58D7F8EBD8EB58B7F8EBDE1
S113019008954F925F926F927F928F929F92AF9247
S11301A0BF92CF92DF92EF92FF920F931F93CF9360
S11301B0DF93CDB7DEB7A0970FB6F894DEBF0FBEBE
S11301C0CDBF8091850090918600A0918700B09169
S11301D088008D839E83AF83B887BC01CD01BAD3D9
S11301E069837A838B839C838091750090917600D8
S11301F0A0917700B091780089879A87AB87BC87F4
S1130200BC01CD01A7D36B017C01409071005090DB
S113021072006090730070907400C301B2019AD3AD
S11302204B015C01A701960169817A818B819C81D4
S11302302ED3A50194012BD320E030E048EC52E406
S113024026D36D8B7E8B8F8B988F609381007093F8
S11302508200809383009093840080916C0090913D
S11302606D00A0916E00B0916F00898F9A8FAB8F53
S1130270BC8FBC01CD016ED36D877E878F87988B31
S11302808090640090906500A0906600B090670034
S1130290C501B4015FD36B017C012D853E854F857B
S11302A0588969817A818B819C81F1D2A701960159
S11302B0EED220E030E048EC52E4E9D260937D00D5
S11302C070937E0080937F009093800080916800FB
S11302D090916900A0916A00B0916B008D879E8710
S11302E0AF87B88BBC01CD0135D3698B7A8B8B8BEF
S11302F09C8BC0906000D0906100E0906200F09010
S11303006300C701B60126D36D8F7E8F8F8F98A3AC
S113031029893A894B895C8969817A818B819C819D
S1130320B6D22D8D3E8D4F8D58A1B1D220E030E054
S113033048EC52E4ACD26093790070937A008093D5
S11303407B0090937C002DEF3DEA40E05DE36D81FE
S11303507E818F819885B1D1698B7A8B8B8B9C8BB5
S11303606093850070938600809387009093880043
S113037028E934EC43E058E369857A858B859C85CC
S11303809CD169837A838B839C836093750070937B
S11303907600809377009093780028E934EC43E06A
S11303A058E3698D7A8D8B8D9C8D87D16D837E8387
S11303B08F83988760936C0070936D0080936E00B8
S11303C090936F0028E934EC43E058E36D857E8513
S11303D08F85988972D169877A878B879C87609388
S11303E068007093690080936A0090936B0027E221
S11303F034ED42ED56E3C301B2015FD12B013C0160
S113040060937100709372008093730090937400F2
S113041027E234ED42ED56E3C501B4014ED14B0160
S11304205C01609364007093650080936600909310
S1130430670027E234ED42ED56E3C701B6013DD132
S11304406B017C0160936000709361008093620093
S1130450909363002BED3FE049EC50E469897A897D
S11304608B899C8910D2181644F41092850010923E
S1130470860010928700109288002BED3FE049E43B
S113048050E469817A818B819C81FDD1181644F4F2
S113049010927500109276001092770010927800F6
S11304A02BED3FE049E450E46D817E818F81988596
S11304B0EAD1181644F410926C0010926D00109258
S11304C06E0010926F002BED3FE049E450E4698523
S11304D07A858B859C85D7D1181644F410926800D0
S11304E01092690010926A0010926B002BED3FE0AD
S11304F049EC50E4C301B201C6D1181644F4109279
S113050071001092720010927300109274002BED1F
S11305103FE049EC50E4C501B401B5D1181644F4E8
S113052010926400109265001092660010926700A9
S11305302BED3FE049EC50E4C701B601A4D11816F5
S113054044F41092600010926100109262001092C4
S113055063006D897E898F89988D13D12CE93FEFD3
S1130560261B370BFF24FA94F29EC001F39E900DD4
S1130570112408E31FEFB80194D270938E006093A6
S11305808D007BBD6ABD60917D0070917E0080917D
S11305907F0090918000F5D02CE93FEF261B370BAC
S11305A0F29EC001F39E900D1124B8017AD270938B
S11305B08C0060938B0079BD68BD60917900709167
S11305C07A0080917B0090917C00DBD0ACE9BFEF96
S11305D0A61BB70BFA9EC001FB9E900D1124B80117
S11305E060D26093890070938A0063BDA0960FB6B1
S11305F0F894DEBF0FBECDBFDF91CF911F910F9155
S1130600FF90EF90DF90CF90BF90AF909F908F902E
S11306107F906F905F904F90089580917000882331
S113062021F180918F00909190000196883C910572
S11306302CF49093900080938F0008951092900072
S113064010928F00809191009091920001968E31CA
S113065091052CF490939200809391000895109248
S11306609200109291001092700008951F920F92C0
S11306700FB60F9211242F933F934F935F936F9371
S11306807F938F939F93AF93BF93EF93FF9377DD04
S113069080DDC3DF2EDDFF91EF91BF91AF919F917C
S11306A08F917F916F915F914F913F912F910F9017
S11306B00FBE0F901F9018955058BB27AA270ED035
S11306C0A8C099D030F09ED020F031F49F3F11F4AF
S11306D01EF48EC00EF4E095E7FB84C0E92FAAD087
S11306E080F3BA17620773078407950718F071F44B
S11306F09EF5C2C00EF4E0950B2EBA2FA02D0B016F
S1130700B90190010C01CA01A0011124FF27591B52
S113071099F0593F50F4503E68F11A16F040A22F58
S1130720232F342F4427585FF3CF469537952795C9
S1130730A795F0405395C9F77EF41F16BA0B620BC8
S1130740730B840BBAF09150A1F0FF0FBB1F661F0F
S1130750771F881FC2F70EC0BA0F621F731F841F52
S113076048F4879577956795B795F7959E3F08F078
S1130770B3CF9395880F08F09927EE0F9795879537
S1130780089504D06894B11178C008955BD088F0BE
S11307909F5790F0B92F9927B751A0F0D1F0660F69
S11307A0771F881F991F1AF0BA95C9F712C0B13084
S11307B081F062D0B1E008955FC0672F782F882759
S11307C0B85F39F0B93FCCF3869577956795B395C3
S11307D0D9F73EF490958095709561957F4F8F4F32
S11307E09F4F089597F99F6780E870E060E008954F
S11307F09FEF80EC089500240A9416161706180635
S11308000906089500240A94121613061406050610
S11308100895092E0394000C11F4882352F0BB0FA1
S113082040F4BF2B11F460FF04C06F5F7F4F8F4F04
S11308309F4F089557FD9058440F551F59F05F3F3F
S113084071F04795880F97FB991F61F09F3F79F0EE
S113085087950895121613061406551FF2CF469570
S1130860F1DF08C0161617061806991FF1CF8695F2
S11308707105610508940895E894BB2766277727D6
S1130880CB0197F908956CD008F48FEF08950BD03D
S1130890C0CFB1DF28F0B6DF18F0952309F0A2CF5E
S11308A0A7CF1124EACFC6DFA0F3959FD1F3950F0C
S11308B050E0551F629FF001729FBB27F00DB11DE0
S11308C0639FAA27F00DB11DAA1F649F6627B00D70
S11308D0A11D661F829F2227B00DA11D621F739F59
S11308E0B00DA11D621F839FA00D611D221F749F67
S11308F03327A00D611D231F849F600D211D822FAE
S1130900762F6A2F11249F5750408AF0E1F08823F4
S11309104AF0EE0FFF1FBB1F661F771F881F915001
S11309205040A9F79E3F510570F05CCFA6CF5F3FC2
S1130930ECF3983EDCF3869577956795B795F79534
S1130940E7959F5FC1F7FE2B880F911D96958795BC
S113095097F908959F9329D00F9007FCEE5F4CC040
S1130960990F0008550FAA0BE0E8FEEF16161706BC
S1130970E807F907C0F012161306E407F50798F024
S1130980621B730B840B950B39F40A2661F0232B3D
S1130990242B252B21F408950A2609F4A140A695B9
S11309A08FEF811D811D089523CF4CDFE8F3E89478
S11309B0E0E0BB279F57F0F02AED3FE049EC06C08A
S11309C0EE0FBB0F661F771F881F28F0B23A62072D
S11309D07307840728F0B25A620B730B840BE395F8
S11309E09A9572F7803830F49A95BB0F661F771F7B
S11309F0881FD2F7904813C0EF93E0FF06C0A2EA25
S1130A002AED3FE049EC5FEB69DE03DF0F900394CE
S1130A1001FC9058E6E2F0E00EC09F3F31F09150A7
S1130A2020F4879577956795B795880F911D9695CE
S1130A30879597F908959F938F937F936F93FF936F
S1130A40EF939B01AC0123DFEF91FF9105D02F9130
S1130A503F914F915F911BCFDF93CF931F930F93E0
S1130A60FF92EF92DF927B018C01689405C0DA2E2D
S1130A70EF0119DFFE01E894A59125913591459187
S1130A805591AEF3EF012ADEFE019701A801DA9435
S1130A9079F7DF90EF90FF900F911F91CF91DF9145
S1130AA0089597FB072E16F4009406D077FD08D01E
S1130AB00BD007FC05D03EF4909581959F4F089587
S1130AC0709561957F4F0895AA1BBB1B51E107C028
S1130AD0AA1FBB1FA617B70710F0A61BB70B881FCA
S1130AE0991F5A95A9F780959095BC01CD01089559
S1070AF0F894FFCFA4
S1130AF4920A863FDB0FC93F920A863FDB0FC93F48
S9030000FC
