S00E00004369636164612E73726563E1
S113000012C02CC02BC02AC029C028C027C026C0BB
S1130010B7C024C023C022C021C020C020C01EC03D
S11300201DC01CC01BC011241FBECFE5D4E0DEBF21
S1130030CDBF13E0A0E6B0E0ECECF2E002C0059026
S11300400D92AA3CB107D9F723E0AAECB3E001C0B2
S11300501D92A33DB207E1F785D036C1D1CF1F92DF
S11300600F920FB60F9211242F938F939F9384B105
S113007095B18835924020F48091CA03882389F091
S1130080909A8091CA0381110DC081E08093CA03C4
S11300901092D2031092D1031092D0031092CF0386
S11300A001C090989F918F912F910F900FBE0F9048
S11300B01F901895889A9098A098379A359A86B187
S11300C0836086B93298339A87B1806C87B93D983A
S11300D0369A08958EB58E7F8EBD8EB582608EBDA4
S11300E08EB58B7F8EBD8AEF9FEF9DBD8CBD08952D
S11300F085E693E09093CE038093CD038FB58F7BF9
S11301008FBD8FB580688FBD8FB58F7E8FBD8FB546
S113011080628FBD8FB581608FBD8FB58D7F8FBDA0
S11301208EB588608EBD8EB58F7E8EBD89B7846096
S113013089BF85B5886485BD85B58F7E85BD85B548
S1130140806285BD85B58E7F85BD85B5826085BDA0
S113015085B58B7F85BD1BBC1ABC19BC18BC13BCF0
S1130160B9CF0895C5DFA6DF7894FFCF8EB58E7F13
S11301708EBD8EB58D7F8EBD8EB58B7F8EBD089561
S11301801F920F920FB60F9211242F933F934F9308
S11301905F936F937F938F939F93AF93BF93EF93EB
S11301A0FF93E4DFE091CB03F091CC03E05AFF4FDF
S11301B0808190E09BBD8ABD8091CB039091CC035C
S11301C001969093CC038093CB032091CD0330917F
S11301D0CE038217930724F01092CC031092CB0322
S11301E0E091C703F091C803E05AFF4F808190E08B
S11301F099BD88BD8091C7039091C80301969093DF
S1130200C8038093C7032091CD033091CE03821796
S1130210930724F01092C8031092C703E091C5031A
S1130220F091C603E05AFF4F808183BD8091C503DE
S11302309091C60301969093C6038093C5032091C1
S1130240CD033091CE038217930724F01092C60396
S11302501092C5038091CA03882321F18091CF03B2
S11302609091D0030196883C91052CF49093D0038F
S11302708093CF0317C01092D0031092CF038091C4
S1130280D1039091D20301968E3191052CF4909371
S1130290D2038093D10306C01092D2031092D103EB
S11302A01092CA0317DFFF91EF91BF91AF919F9115
S11302B08F917F916F915F914F913F912F910F900B
S10F02C00FBE0F901F901895F894FFCF0C
S11302CC64617461E25E0000808080808080808044
S11302DC80807F81808080808081817F808180810B
S11302EC807F818180807F818180807F8281807EFC
S11302FC81837F7D83817F847F7E8183807C8185E4
S113030C817D81827E83798384817C80857C837FDB
S113031C7C897F7E80818482788385817D808380C3
S113032C7F827E847F817F817F84817D7F837F81B7
S113033C7E81847E7D838081837D7F84807F8082A7
S113034C827D7E867E7E78947979887E847C7F8299
S113035C84817D7E8686748386807D8081827F8184
S113036C828180817D877F7E7E87827687827D8D68
S113037C6F838A7A7F858875808979867C83857E6C
S113038C827D8082857E7F7C8687768085827C8B4D
S113039C7B7889897280868281817F7B89837D7F4A
S11303AC83867A7F867C81848579827E8382808031
S11303BC8C747D91747E7E966E83857B8D7D7A8123
S11303CC867E857985877784887F77848D7B7B840B
S11303DC867F7F817F7F818381847E7195806D8F01
S11303EC876E868874917B7A8687787F85807B81FB
S11303FC87827685897B7F7F877E848963A28B6ADB
S113040C6E8B9E7867858C986876839481737A8BCF
S113041C877D788289807789837F7B8488807584C3
S113042C867F817E7F819A714DAC995B8CA05C84B4
S113043C957377937D798E806F90807C887E748D94
S113044C8867959A5679A684568696928450959385
S113045C835D8A927A807A828E7779898E73729090
S113046C8C71837E8488846D878E8A725BBA756A7C
S113047C97688A95717185947F828169A7766D8D51
S113048C79907C7AA040A99D48709EC23A689E9847
S113049C7F5B7AAC7E6782967A797E88897376984C
S11304AC88687E9180768A75838A797D85817D7A48
S11304BCBF3589BF407A9B6F81987963A3845DA013
S11304CC7964A07A708F88678D91637CA489478442
S11304DCB18D4784AB8A6C50B689725FA1886B80EE
S11304EC8F807380839276688F97737286839077EC
S11304FC718496757F7866C0635EB06779976F7404
S113050C928E6B8686769A6C7A8F768677877D82C6
S113051C78A7932D98BB7A3693AC895168B78764C6
S113052C70A27A7C6D928171799C7C6792877A81B6
S113053C7B7593896382927D7679A85767A2A83AD2
S113054C95B43DA48E4C939A64799E688598608387
S113055C9E6874987C64A8784FA5A25C659BA27F66
S113056C507CBA6573739781797C8F71818A73829D
S113057C7F857A89787D887F8083788A827E7F598B
S113058CAC9B34AB83679877678F88728191639D3A
S113059C875A997D7391757F8C42C27F3896BC843F
S11305AC1EA8A4806563A88D53839A78778A7D6C82
S11305BC91817A80758794647E976F7A8C7C7D8325
S11305CC7783828A8C47ADA13097945D948C60803C
S11305DCAC5C74AB5D869A5A898A7E708B689C9AE3
S11305EC3C83CB4763AB826E806AB27556A28A6138
S11305FC74A3796E799F7D5A8E95746C92847581EF
S113060C7983946C7591973BA2C213B69053AE6BDD
S113061C699B86607FA24D87A9499492734E9EAEC6
S10D062C3C8B9B8A4EC8006400005A
S9030000FC
